13:05:34.201217 IP SCAD02.scad.psu.137 > 192.168.56.255.137: UDP, length 50
	0x0000:  4500 004e 0047 0000 8011 4807 c0a8 3801  E..N.G....H...8.
	0x0010:  c0a8 38ff 0089 0089 003a f3a1 d706 0110  ..8......:......
	0x0020:  0001 0000 0000 0000 2046 4846 4145 4245  .........FHFAEBE
	0x0030:  4543 4143 4143 4143 4143 4143 4143 4143  ECACACACACACACAC
	0x0040:  4143 4143 4143 4141 4100 0020 0001       ACACACAAA.....
13:05:34.951150 IP SCAD02.scad.psu.137 > 192.168.56.255.137: UDP, length 50
	0x0000:  4500 004e 0048 0000 8011 4806 c0a8 3801  E..N.H....H...8.
	0x0010:  c0a8 38ff 0089 0089 003a f3a1 d706 0110  ..8......:......
	0x0020:  0001 0000 0000 0000 2046 4846 4145 4245  .........FHFAEBE
	0x0030:  4543 4143 4143 4143 4143 4143 4143 4143  ECACACACACACACAC
	0x0040:  4143 4143 4143 4141 4100 0020 0001       ACACACAAA.....
13:05:35.034460 IP6 SCAD02.scad.psu.53923 > ff02::1:3.5355: UDP, length 45
	0x0000:  6000 0000 0035 1101 fe80 0000 0000 0000  `....5..........
	0x0010:  14fc d057 0480 8f2c ff02 0000 0000 0000  ...W...,........
	0x0020:  0000 0000 0001 0003 d2a3 14eb 0035 6fb2  .............5o.
	0x0030:  a894 0000 0001 0000 0000 0000 0332 3535  .............255
	0x0040:  0235 3603 3136 3803 3139 3207 696e 2d61  .56.168.192.in-a
	0x0050:  6464                                     dd
13:05:35.034617 IP SCAD02.scad.psu.62470 > 224.0.0.252.5355: UDP, length 45
	0x0000:  4500 0049 0049 0000 0111 dfb5 c0a8 3801  E..I.I........8.
	0x0010:  e000 00fc f406 14eb 0035 eb30 a894 0000  .........5.0....
	0x0020:  0001 0000 0000 0000 0332 3535 0235 3603  .........255.56.
	0x0030:  3136 3803 3139 3207 696e 2d61 6464 7204  168.192.in-addr.
	0x0040:  6172 7061 0000 0c00 01                   arpa.....
13:05:35.701181 IP SCAD02.scad.psu.137 > 192.168.56.255.137: UDP, length 50
	0x0000:  4500 004e 004a 0000 8011 4804 c0a8 3801  E..N.J....H...8.
	0x0010:  c0a8 38ff 0089 0089 003a f3a1 d706 0110  ..8......:......
	0x0020:  0001 0000 0000 0000 2046 4846 4145 4245  .........FHFAEBE
	0x0030:  4543 4143 4143 4143 4143 4143 4143 4143  ECACACACACACACAC
	0x0040:  4143 4143 4143 4141 4100 0020 0001       ACACACAAA.....
13:05:41.054594 IP6 SCAD02.scad.psu.64616 > ff02::1:3.5355: UDP, length 90
	0x0000:  6000 0000 0062 1101 fe80 0000 0000 0000  `....b..........
	0x0010:  14fc d057 0480 8f2c ff02 0000 0000 0000  ...W...,........
	0x0020:  0000 0000 0001 0003 fc68 14eb 0062 c789  .........h...b..
	0x0030:  3dd3 0000 0001 0000 0000 0000 0133 0130  =............3.0
	0x0040:  0130 0130 0131 0130 0130 0130 0130 0130  .0.0.1.0.0.0.0.0
	0x0050:  0130                                     .0
13:05:41.054700 IP SCAD02.scad.psu.50029 > 224.0.0.252.5355: UDP, length 90
	0x0000:  4500 0076 004b 0000 0111 df86 c0a8 3801  E..v.K........8.
	0x0010:  e000 00fc c36d 14eb 0062 9d66 3dd3 0000  .....m...b.f=...
	0x0020:  0001 0000 0000 0000 0133 0130 0130 0130  .........3.0.0.0
	0x0030:  0131 0130 0130 0130 0130 0130 0130 0130  .1.0.0.0.0.0.0.0
	0x0040:  0130 0130 0130 0130 0130 0130 0130 0130  .0.0.0.0.0.0.0.0
	0x0050:  0130                                     .0
13:05:41.641626 IP6 SCAD02.scad.psu.61366 > ff02::1:3.5355: UDP, length 42
	0x0000:  6000 0000 0032 1101 fe80 0000 0000 0000  `....2..........
	0x0010:  14fc d057 0480 8f2c ff02 0000 0000 0000  ...W...,........
	0x0020:  0000 0000 0001 0003 efb6 14eb 0032 839a  .............2..
	0x0030:  7d4e 0000 0001 0000 0000 0000 0332 3532  }N...........252
	0x0040:  0130 0130 0332 3234 0769 6e2d 6164 6472  .0.0.224.in-addr
	0x0050:  0461                                     .a
13:05:41.641733 IP SCAD02.scad.psu.61954 > 224.0.0.252.5355: UDP, length 42
	0x0000:  4500 0046 004c 0000 0111 dfb5 c0a8 3801  E..F.L........8.
	0x0010:  e000 00fc f202 14eb 0032 1e30 7d4e 0000  .........2.0}N..
	0x0020:  0001 0000 0000 0000 0332 3532 0130 0130  .........252.0.0
	0x0030:  0332 3234 0769 6e2d 6164 6472 0461 7270  .224.in-addr.arp
	0x0040:  6100 000c 0001                           a.....
13:05:41.841992 IP SCAD02.scad.psu.137 > 224.0.0.252.137: UDP, length 50
	0x0000:  4500 004e 004d 0000 0111 dfac c0a8 3801  E..N.M........8.
	0x0010:  e000 00fc 0089 0089 003a 0f7f d709 0000  .........:......
	0x0020:  0001 0000 0000 0000 2043 4b41 4141 4141  .........CKAAAAA
	0x0030:  4141 4141 4141 4141 4141 4141 4141 4141  AAAAAAAAAAAAAAAA
	0x0040:  4141 4141 4141 4141 4100 0021 0001       AAAAAAAAA..!..
13:05:43.341463 IP SCAD02.scad.psu.137 > 224.0.0.252.137: UDP, length 50
	0x0000:  4500 004e 004e 0000 0111 dfab c0a8 3801  E..N.N........8.
	0x0010:  e000 00fc 0089 0089 003a 0f6f d709 0010  .........:.o....
	0x0020:  0001 0000 0000 0000 2043 4b41 4141 4141  .........CKAAAAA
	0x0030:  4141 4141 4141 4141 4141 4141 4141 4141  AAAAAAAAAAAAAAAA
	0x0040:  4141 4141 4141 4141 4100 0021 0001       AAAAAAAAA..!..
13:05:44.841592 IP SCAD02.scad.psu.137 > 224.0.0.252.137: UDP, length 50
	0x0000:  4500 004e 004f 0000 0111 dfaa c0a8 3801  E..N.O........8.
	0x0010:  e000 00fc 0089 0089 003a 0f6f d709 0010  .........:.o....
	0x0020:  0001 0000 0000 0000 2043 4b41 4141 4141  .........CKAAAAA
	0x0030:  4141 4141 4141 4141 4141 4141 4141 4141  AAAAAAAAAAAAAAAA
	0x0040:  4141 4141 4141 4141 4100 0021 0001       AAAAAAAAA..!..

